:050284003443101001DD
:0901E20012001CF5807F027E0072
:1001EB00D3EF9400EE940040147D6E7C00ED1D70F7
:0D01FB00011CED4C70F7EF1F70E61E80E355
:0102080022D3
:10010600D2A4C2A5C2A6C2A71200031201E5C2A4C8
:10011600D2A5C2A6C2A79000011201E2C2A4C2A53E
:10012600D2A6C2A79000021201E2C2A4C2A5C2A62C
:10013600D2A790000312001CF5807F027E00020108
:01014600EBCD
:10020900E4FEEF30E704D2948002C294EF25E0FFC8
:0E021900D291309203430701C2910EBE08E459
:0102270022B4
:0C0261001201E7C290D293C291D2952204
:0C025400C293120209E4FF120209D293C7
:01026000227B
:090228007D017F211202317F22C9
:10023100C293120209AC07AF05120209D293AF04AF
:01024100229A
:060184008B0B8A0C890DB3
:10018A00C293120209AD07E4FCECC3950E5017E4C2
:10019A00FF120209AB0BAA0CA90D8C82758300EF22
:0A01AA001200490C80E3D293AF0568
:0101B4002228
:0B0147007BFF7A027984750C057F2A8B
:060152008B098A0A890BEB
:10015800C293120209AD07E4FCECC3950C5018AB2E
:1001680009050BE50BAA0A7002050A14F912000327
:0B017800FF1202090C80E2D293AF05D9
:010183002259
:10006B008B148A158916C2907BFF7A027984750CE2
:10007B00057F30120152120147AB14AA15A9167550
:10008B000C047FA01201521202287D0A7F24120257
:10009B00317D407F251202317D077F261202317D93
:0F00AB000E7F20120231D2907F057E000201EB02
:1001B500C2901201471202287D407F251202317D2F
:1001C500047F311202317D077F261202317D0F7FB8
:0D01D50020120231D2907F057E000201EB66
:100242007F071202548F203005077DFF7F2712029D
:02025200312257
:1000BA007F071202548F20300620C2907B007A00FC
:1000CA00790F750E047F611201847DFF7F2712026A
:1000DA0031C2937FE2120209D293E4F508F5097B53
:1000EA00007A00790F1201060509E5097002050870
:0B00FA00C39464E5086480948040E437
:0101050022D7
:0B0279001202611201B51200BA80F8F9
:0300000002026D8C
:0C026D00787FE4F6D8FD7581200202794C
:10000300BB010689828A83E0225002E722BBFE02FB
:09001300E32289828A83E493222E
:10001C00BB010CE58229F582E5833AF583E0225099
:10002C0006E92582F8E622BBFE06E92582F8E222E3
:0D003C00E58229F582E5833AF583E49322FD
:10004900F8BB010DE58229F582E5833AF583E8F0ED
:10005900225006E92582C8F622BBFE05E92582C899
:02006900F22281
:00000001FF
