:10000300750802750958E4F50AF50B7590FFD2904F
:100013007F607EEA12007D750A00750B01C3E50B54
:100023009509E50A95085016C290AF0BAE0A120067
:100033007D120070050BE50B70E3050A80DFC290AB
:10004300E50924FFF50BE50834FFF50AD3E50B9426
:1000530000E50A940040B7C290AF0BAE0A12007DD0
:0D006300120070E50B150B70E3150A80DF2D
:0D007000D290C3E509950BFFE508950AFE47
:0A007D00EF1F70011E144E70F722F1
:0300000002008774
:0C008700787FE4F6D8FD75810B020003C1
:00000001FF
