:0302780001420040
:10023B00D2A100D2A00000000000C2A1000000006B
:06024B0000C2A000002229
:10026700C2A100D2A00000000000D2A1000000003F
:010277002264
:10010F00E4FEEFA806088002C333D8FC30E704D220
:10011F00A18002C2A100D2A00000000000C2A00E68
:10012F00BE08DF0000D2A10000D2A000000030A165
:0B013F0004C2008002D200C2A0000039
:01014A002292
:1001A900E4FFD2A1FE00C2A00000000000D2A0001E
:1001B90000EF25E0FF30A1010F00000EBE08E6C2E6
:0301C900A0000093
:0101CC002210
:10020B00200104C2A18002D2A1000000D2A00000F4
:08021B00000000C2A000002257
:10017F00AE07AC0312023B12010F200002C322EDA7
:10018F004440FF12010F200002C322AF0412010FDF
:0A019F00200002C322120267D322DF
:1001EF0012023B12010F200002C322ED4440FF1206
:0C01FF00010F200002C322120267D3226D
:0701CD007F901201EF7F900B
:1001D40012023BEF04FF12010F2000037F002212E2
:0A01E40001A9D20112020B120267FA
:0101EE0022EE
:10022300D2AFD2ACD2AB758920E4F58775985075FF
:080233008DFD758BFDD28E22BA
:0802510012014B7599207FC8D2
:0D025900EFD3940040077E7DDEFE1F80F392
:010266002275
:10014B00AD07ED75F064842430F5997FC812025920
:10015B00ED75F00A8475F00A84E5F02430F5997F8B
:10016B00C8120259ED75F00A84E5F02430F5997F39
:04017B00C80202595B
:10008F00120223E54214601614601C1460221460DF
:10009F00282404702D7D011201CD8F2280247D0232
:1000AF001201CD8F23801B7D031201CD8F2480126F
:1000BF00E4FD1201CD8F258009AB26E4FD7F901260
:1000CF00017F8525260542E542D394044003E4F5DC
:1000DF00427FC8120259AF22120251AF23120251AE
:1000EF00AF24120251AF2512014B75990A7FC81226
:1000FF00025930988E859921852199C298020092D4
:03000000020003F8
:0C000300787FE4F6D8FD75814202004AC7
:10000F0002008FE493A3F8E493A34003F68001F278
:10001F0008DFF48029E493A3F85407240CC8C333F2
:10002F00C4540F4420C8834004F456800146F6DFC1
:10003F00E4800B0102040810204080900278E47ED7
:10004F00019360BCA3FF543F30E509541FFEE493B6
:10005F00A360010ECF54C025E060A840B8E493A37D
:10006F00FAE493A3F8E493A3C8C582C8CAC583CAA8
:10007F00F0A3C8C582C8CAC583CADFE9DEE780BE60
:01027B000082
:00000001FF
