:1008C600C2A27F647E00EF1F70011EEF4E70F7D24A
:0E08D600A27E007F04EF1F70011EEF4E70F730
:0108E40022F1
:10066B00E4FEEF139204EFC313FF30041BC2A20B83
:10067B00BB00000BBB0000D2A27A007B08EB1B7007
:10068B00011AEB4A70F7801BC2A27A007B08EB1BA6
:10069B0070011AEB4A70F7D2A20BBB00010A0BBB1D
:0706AB0000010A0EBE08BBAE
:0106B2002225
:10083A00C2A20FBF0000D2A20FBF00000FBF00006C
:10084A00A2A292037E007F08EF1F70011EEF4E7076
:03085A00F7A203FF
:01085D002278
:10085E00E4FDFBFA12083AE433FFC4333333548019
:10086E00FEEDC3134EFD0BBB00010AEB64084A708C
:03087E00E3AF05E0
:010881002254
:10097C001208C67F017E001208E57FCC12066B7F41
:04098C004402066BB0
:100990001208C67F017E001208E57FCC12066B7F2D
:0409A000BE02066B22
:1006B30012099012085EA90712085EEFFEE9FFAD6A
:1006C30007AC06EC120221E4FBFA7980783D1201B3
:1006D300168F0B8E0A8D098C08E4FFFE7D207C416A
:1006E300AB0BAA0AA909A808120116E4FBFAF978C8
:0706F3003F12002512025A1C
:0106FA0022DD
:1008E500D3EF9400EE940040147D707C00ED1D70F4
:0D08F500011CED4C70F7EF1F70E61E80E354
:0109020022D2
:020006000022D6
:1005B30053B0FE85B0755375F0E57564F0604B7FFD
:1005C3000A7E001208E585B0755375F0E57564F091
:1005D300603A85B075E5752442601124E060122409
:1005E300F0601324707012757601800D75760280A9
:1005F300087576038003E4F576E57564F060088595
:0C060300B0755375F080F2AF76227F04D2
:01060F0022C8
:1009A400C2908F80D2A5120006C2A57F017E0002EC
:0209B40008E554
:1009B600D2908F80D2A5120006C2A57F017E0002CA
:0209C60008E542
:0807E6008B1A8A1B891C8D1D72
:1007EE00E4F51EE51EC3951D5017AB1AAA1BA91CD6
:1007FE00851E827583001202DBFF1209B6051E806C
:01080E00E207
:01080F0022C6
:10095000C2917F381209A47F0C1209A47F061209E4
:06096000A47F010209A4BE
:04042D008C088D09A1
:1004310075136C75146575157675166575176C757C
:100441001820EF2430F5197F841209A47B007A006B
:1004510079137D071207E6750A54750B45750C4D26
:10046100750D50750E3AAE08AF097C007D6412031C
:10047100087C007D0A120308ED2430F50FAE08AFA9
:10048100097C007D0A1203087C007D0A120308ED35
:100491002430F51075112EAE08AF097C007D0A12CB
:1004A1000308ED2430F5127FC31209A47B007A0002
:0704B100790A7D090207E64C
:0A09F900012700015200022800004F
:1007B5007E01E4FD7C0174312EF8E6D394074003F5
:1007C500430780ECC394085004EFC313FF0E0CBC21
:1007D50009E4742A2DF8A607E4FF0DBD04D6D2025C
:0107E50022F1
:10090300E52C24E8600C24BA600C2452700A7F01A1
:0A09130080067F0280027F03C2020B
:01091D0022B7
:1009D900438901758CFC758A66D2AFD2A9D28C2263
:1009E900438901758DFC758B66D2AFD2ABD28E224D
:07000E00D288D2A8D2AF2274
:1004B8001209D91209E9D294D295D296D297120983
:1004C8005012097C1205B38F52E552640460068508
:1004D800522785522E7F021208A612091E8F25E583
:1004E80025D39496403DE5526003B40436D3E530F5
:1004F8009454E52F64809481400575270380C5D303
:10050800E5309440E52F648094814005752702808A
:10051800B3D3E530942CE52F6480948140A67527E9
:0F0528000180A1E52E709DE5257099F52780953E
:03001B00020537A4
:09053700C0E0C0D075D000C0077F
:10054000758DFC758B66E52724FE600B14600C240A
:1005500002700A7F2880067F1E80027F14E52770C4
:1005600007E525D394964044E5216F703DF521E5DC
:100570002214601314601814602114602A2404707B
:1005800029C294D2958004D294C295D2968006D284
:1005900094D295C296D2970522800FD294D295D24A
:0C05A00096C297052280037522000521F9
:0705AC00D007D0D0D0E032EF
:03000B00020610DA
:10061000C0E0C0F0C083C082C0D075D000C000C0B0
:0D06200001C002C003C004C005C006C00731
:10062D00758DFC758B66E523B405161206B38E2FFA
:10063D008F30AD30AC2FAF2712042D12097C7523EE
:03064D0000052382
:10065000D007D006D005D004D003D002D001D000FE
:0B066000D0D0D082D083D0F0D0E032A8
:030003000206FBF7
:0906FB00C0E0C0D075D000C000C1
:10070400300029E526C39411500AE526C394094014
:100714000375240074312524F8A6267526000524C3
:10072400E524B4210CD2017524008005752600D27D
:0107340000C4
:07073500D000D0D0D0E0326B
:030A03000174007B
:10096600D2A100D2A00000000000C2A10000000039
:0609760000C2A0000022F7
:1009C800C2A100D2A00000000000D2A100000000D7
:0109D80022FC
:10077900E4FEEFA806088002C333D8FC30E704D2B0
:10078900A18002C2A100D2A00000000000C2A00EF8
:10079900BE08DF0000D2A10000D2A000000030A1F5
:0B07A90004C2058002D205C2A00000BF
:0107B4002222
:10088200E4FFD2A1FE00C2A00000000000D2A0003E
:1008920000EF25E0FF30A1010F00000EBE08E6C206
:0308A200A00000B3
:0108A5002230
:10093800200404C2A18002D2A1000000D2A00000BD
:08094800000000C2A000002223
:10081000AE07AC03120966120779200502C322ED68
:100820004440FF120779200502C322AF0412077962
:0A083000200502C3221209C8D322DA
:1008A600AD071209667F90120779200502C322ED73
:1008B6004440FF120779200502C3221209C8D32239
:10091E001209667F911207792005037F00221208C3
:09092E0082D2041209381209C832
:01093700229D
:10073C008F1FE51F75F064842430F5997FC87E0007
:10074C001208E5E51F75F00A8475F00A84E5F024BB
:10075C0030F5997FC87E001208E5E51F75F00A8414
:0D076C00E5F02430F5997FC87E000208E515
:10001E000202C6E86480F8E933E83360110460F048
:10002E00ED33EC337009E8FCE9FDEAFEEBFF220448
:10003E0060DED3EB9FEA9EE99DE8C2E78CF0C2F743
:10004E0095F0400CE8CCF8E9CDF9EACEFAEBCFFB0F
:10005E0012029185D0F05804700320D5B3E80470D5
:10006E00075002B2D50202D092D5EC0460F7E4CC70
:10007E00C0E0C398F8603B94186008400DD0E0FBD8
:10008E000202A8E4FBFAC9FC8028E830E406E4C9C1
:10009E00FBE4CAFCE830E305E4C9CACBFCE854072C
:1000AE006010F8C3E913F9EA13FAEB13FBEC13FC37
:1000BE00D8F130F52FC3E49CFCEF9BFFEE9AFEEDDA
:1000CE0099FDD0E0FBEF4E4D4C701222DB03020285
:1000DE00CDEC2CFCEF33FFEE33FEED33FDED30E7D0
:1000EE00EB0202A8EF2BFFEE3AFEED39FDD0E0FB5E
:1000FE0050130BBB00030202D0ED13FDEE13FEEF07
:08010E0013FFEC13FC0202A830
:10011600EC4D6011E8497017ED33EC3304600DE4E3
:10012600FCFFFEFD22E933E8330470F80202C61232
:10013600029158046009E4CC248150062850090233
:1001460002D02840030202CDC0E0EB4A7044B980D9
:1001560006D0E0FB0202BCEF4E701CBD8008EBFF30
:10016600EAFEE9FD80EBE98DF0A4FEE5F00201FF71
:10017600E9CDF9EAFEEBFFEF89F0A4FCE5F0CE89C4
:10018600F0A42EFFE435F0CD89F0A42DFEE435F081
:100196008067EF4E7005BD80D780C3EF8BF0A4ACAF
:1001A600F0EE8BF0A42CFCE435F0F8EF8AF0A42CEA
:1001B600E5F038FCE433CB8DF0A42CFCE5F03BF8FD
:1001C600EE8AF0A42CFCE5F038F8E433CF89F0A4ED
:1001D6002CFCE5F038CF3400CE89F0A42FFFE5F0F3
:1001E6003EFEE433C98DF0A42EFEE5F039CD8AF04B
:1001F600A42FFFE5F03EFEE43DFD33D0E0FB5007C3
:100206000BBB000F0202D0EC2CFCEF33FFEE33FEEB
:06021600ED33FD0202A819
:10021C0075F020800E75F010800575F0087D007E5D
:10022C00007F003392D530D50312033EEC334010DF
:10023C00EF33FFEE33FEED33FDEC33FCD5F0ED2266
:0E024C00E5F0247EA2D513CC92E7CDCEFF22A2
:10025A00EDD2E7CD33EC3392D524814006E4FFFE9C
:10026A00FDFC22FCE4CFCECDCC24E0501174FF80FB
:10027A00EDC3CC13CCCD13CDCE13CECF13CF047098
:07028A00F030D5DE02033E57
:10029100E9D2E7C933E833F892D5EDD2E7CD33ECB3
:0702A10033FC5002B2D5222C
:1002A800EC30E7100FBF000C0EBE00080DBD0004B7
:1002B8000BEB6014A2D5EB13FCED92E7FD2274FF63
:1002C800FCFDFEFF22E480F8A2D574FF13FC7D80BC
:0302D800E480EFD0
:030000000203A157
:0C03A100787FE4F6D8FD7581760203E851
:1002DB00BB010CE58229F582E5833AF583E02250D8
:1002EB0006E92582F8E622BBFE06E92582F8E22222
:0D02FB00E58229F582E5833AF583E493223C
:10030800C2D5EC30E709B2D5E4C39DFDE49CFCEE10
:1003180030E715B2D5E4C39FFFE49EFE12034CC339
:10032800E49DFDE49CFC800312034C30D507C3E434
:060338009FFFE49EFE227F
:0E033E00C3E49FFFE49EFEE49DFDE49CFC22D0
:1003AD000204B8E493A3F8E493A34003F68001F2AA
:1003BD0008DFF48029E493A3F85407240CC8C33351
:1003CD00C4540F4420C8834004F456800146F6DF20
:1003DD00E4800B01020408102040809009F9E47EAE
:1003ED00019360BCA3FF543F30E509541FFEE49315
:1003FD00A360010ECF54C025E060A840B8E493A3DC
:10040D00FAE493A3F8E493A3C8C582C8CAC583CA06
:10041D00F0A3C8C582C8CAC583CADFE9DEE780BEBE
:010A060000EF
:10034C00BC000BBE0029EF8DF084FFADF022E4CC95
:10035C00F875F008EF2FFFEE33FEEC33FCEE9DEC5E
:10036C00984005FCEE9DFE0FD5F0E9E4CEFD22EDA4
:10037C00F8F5F0EE8420D21CFEADF075F008EF2FEE
:10038C00FFED33FD4007985006D5F0F222C398FDDF
:05039C000FD5F0EA227C
:00000001FF
