:100085007FBFDFEFF7FBFDFEFFFF00005555AAAA76
:100003007590FF7590FEE4F508120095E59025E0E4
:10001300F5900508E508C3940840EE75907FE4F574
:1000230008120095E590C313F5900508E508C394FD
:100033000840EE7590FEE4F508120095E59025E082
:10004300F5904390010508E508C3940840EB7590CB
:100053007FE4F508120095E590C313F59043908073
:100063000508E508C3940840EBE4F508E508C394E4
:10007300105090120095E50890008593F5900508BF
:0200830080EA11
:040095007F207E4EFC
:0A009900EF1F70011E144E70F722D5
:030000000200A358
:0C00A300787FE4F6D8FD758108020003A8
:00000001FF
