:100069003F065B4F666D7D077F6F777C395E7971DF
:010079000086
:08004300C2A6C2A77F057E00E2
:10004B00D3EF9400EE940040147D707C00ED1D7096
:0D005B00011CED4C70F7EF1F70E61E80E3F6
:010068002275
:1000030090006DE493F580C2A4C2A5C2A6D2A71244
:10001300004790006CE493F580C2A4C2A5D2A61257
:10002300004590006BE493F580C2A4D2A51200436F
:1000330090006AE493F580D2A4C2A512004380C065
:0300000002007A81
:0C007A00787FE4F6D8FD758107020003D2
:00000001FF
