:0A0133003F065B4F666D7D077F6F8E
:03000B00020006EA
:030006000522329E
:0300030002006494
:09006400C0E0C0D075D000C0005E
:10006D00300029E522C3943F500AE522C394214074
:10007D000375210074272521F8A62275220005217C
:10008D00E521B4210CD2017521008005752200D225
:01009D000062
:07009E00D000D0D0D0E03209
:0D011A00758902E4F58CF58AD2A9D28C22F9
:07013D00D288D2A8D2AF2244
:10000E00E5251200D600410800320C0037180046D4
:10001E001C005042005A4A005552004B5A003C5E9A
:10002E0000000061900134802690013580219001FE
:10003E0036801C900137801790013880129001395C
:10004E00800D90013A800890013B800390013CE4C2
:06005E0093F580C20222AE
:1000A5007E01E4FD7C0174272EF8E6D39407400316
:1000B500430780ECC394085004EFC313FF0E0CBC38
:1000C50009E474232DF8A607E4FF0DBD04D6D2027A
:0100D5002208
:1000FC0012013D12011AD2A4D2A5D2A6D2A7300168
:0E010C00051200A5C2013002F512000E80F0AF
:03000000020127D3
:0C012700787FE4F6D8FD7581470200FCEB
:1000D600D083D082F8E4937012740193700DA3A3B9
:1000E60093F8740193F5828883E4737402936860CD
:0600F600EFA3A3A380DFCD
:00000001FF
