:10018E008F4F2F1F3F065B4F666D7D077F6F777C0E
:0E019E00395E7971BF86DBCFE6EDFD87FFEF9E
:0501D000C180010C00DC
:1001AC008F10E510D39400400A75117DD511FD1503
:0401BC001080EF229E
:10016F001F43A0F0EDBF02059001A2800390019202
:0F017F0093F580EF90018E9352A07F050201ACA3
:10014F00AE03AC05AD077F0412016FAD047F031240
:10015F00016FAD067F0212016FAD157F0102016FB6
:07000300D2A9D2AFD28C227A
:0701C900C2A9C2AFC28C22E3
:10000E00758901758C4CE4F58A20B61F7F0A1201A2
:10001E00AC20B63830B6FD30000512000380031256
:10002E0001C9B200D2A37590FF802120B71E7F0AAE
:10003E001201AC20B71630B7FD1201C9D200D2A3FF
:10004E007590FFE4F50CF50EF50DF50F30000F056C
:10005E000CE50C6464702E6390FFF50C8027E50EA2
:10006E0064147021F50CF50E050DE50DB43C05E498
:10007E00F50D050FE50FB43C03E4F50FC2A37F0A9F
:10008E001201ACD2A3E50D75F00A8485F008E50DDA
:10009E0075F00A84F509E50F75F00A8485F00AE516
:1000AE000F75F00A84F50B850815AB09AD0AFF1222
:0500BE00014F020017D4
:03000B000201C02F
:0901C000758C4C758A00050E32A5
:030000000200C338
:0C00C300787FE4F6D8FD75812002010A68
:1000CF0002000EE493A3F8E493A34003F68001F239
:1000DF0008DFF48029E493A3F85407240CC8C33332
:1000EF00C4540F4420C8834004F456800146F6DF01
:1000FF00E4800B01020408102040809001D0E47EC0
:10010F00019360BCA3FF543F30E509541FFEE493F5
:10011F00A360010ECF54C025E060A840B8E493A3BC
:10012F00FAE493A3F8E493A3C8C582C8CAC583CAE7
:10013F00F0A3C8C582C8CAC583CADFE9DEE780BE9F
:0101D5000029
:00000001FF
