:0E01A4000C0830187A10385A424A5200FFA652
:04012E007F0A7E00C6
:10013200D3EF9400EE940040147D707C00ED1D70AE
:0D014200011CED4C70F7EF1F70E61E80E30E
:01014F00228D
:0D01B3007F3F7E00EF1F70011EEF4E70F7C2
:0101C000221C
:0D01C1007F047E02EF1F70011EEF4E70F7ED
:0101CE00220E
:10015000D3EF9400EE94004009B295EF1F70F11EAA
:0301600080EE220C
:0C01E9007F2A7E00120150D2950201B363
:100163007F2A7E00120150D2951201B31201B3020D
:0201730001B3D6
:10008F00AD07ED30E70512016380031201E9ED3092
:10009F00E60512016380031201E9ED30E505120157
:1000AF006380031201E9ED30E4051201638003124E
:1000BF0001E9ED30E30512016380031201E9ED3030
:1000CF00E20512016380031201E9ED30E10512012F
:1000DF006380031201E9ED30E0030201631201E9CD
:0100EF0022EE
:0301CF001201F525
:0A01D200AF1112008FAF1202008F70
:0C01F5007FB27E02120150D2950201C1BF
:0F0195001201CFAF0812008FE508F4FF02008FB0
:0D01DC001201CFAF0912008FAF0902008F92
:100175001201F51201D2AF0A12008FAF0A02008FE9
:100185001201F51201D2AF0B12008FAF0B02008FD7
:1000F00020B40C12012E20B40630B4FD120195205C
:10010000B50C12012E20B50630B5FD1201DC20B66B
:100110000C12012E20B60630B6FD12017520B7D0A4
:0E01200012012E20B7CA30B7FD12018580C231
:050201001200F080FB7B
:03000000020003F8
:0C000300787FE4F6D8FD75811302004AF6
:10000F00020201E493A3F8E493A34003F68001F204
:10001F0008DFF48029E493A3F85407240CC8C333F2
:10002F00C4540F4420C8834004F456800146F6DFC1
:10003F00E4800B01020408102040809001A4E47EAC
:10004F00019360BCA3FF543F30E509541FFEE493B6
:10005F00A360010ECF54C025E060A840B8E493A37D
:10006F00FAE493A3F8E493A3C8C582C8CAC583CAA8
:10007F00F0A3C8C582C8CAC583CADFE9DEE780BE60
:0101B200004C
:00000001FF
