:10026700113B20202020202020202020202020207B
:10027700202000112920202020202020202020209D
:06028700202020202000D1
:10037700D2A100D2A00000000000C2A1000000002E
:0603870000C2A0000022EC
:1003A200C2A100D2A00000000000D2A10000000003
:0103B2002228
:1001A400E4FEEFA806088002C333D8FC30E704D28B
:1001B400A18002C2A100D2A00000000000C2A00ED3
:1001C400BE08DF0000D2A10000D2A000000030A1D0
:0B01D40004C2008002D200C2A00000A4
:0101DF0022FD
:10028E00E4FFD2A1FE00C2A00000000000D2A00038
:10029E0000EF25E0FF30A1010F00000EBE08E6C200
:0302AE00A00000AD
:0102B100222A
:10033000200104C2A18002D2A1000000D2A00000CE
:08034000000000C2A000002231
:10023D00AE07AC031203771201A4200002C322ED16
:10024D004440FF1201A4200002C322AF041201A4F6
:0A025D00200002C3221203A2D322E4
:100314001203771201A4200002C322ED4440FF120D
:0C03240001A4200002C3221203A2D32275
:0702D5007F901203147F90DB
:1002DC00120377EF04FF1201A42000037F00221207
:0A02EC00028ED2011203301203A2A9
:0102F60022E5
:0703C2007FFA1203C97FFA64
:0603C900EFC313FFDFFE8D
:0103CF00220B
:0F03B300AE071EEE60081203C21203C280F422CE
:10038D00AD077F051203B3C2A5C290C29100D2A5DD
:05039D008D80C2A522C5
:10036000AD077F051203B3C2A5D290C29100D2A5FA
:070370008D80C2A5C290229E
:0402F700AE07AB059E
:1002FB00EEC39410EE400524B0FC80032480FCAFC9
:09030B000412038DAF030203602C
:0601E0008B098A0A890B5D
:1001E600EFC454F0F50CE4F50DAF0C050CAB09AA01
:1001F6000AA90B850D82758300120210FD1202F703
:09020600050DE50DC3941040E064
:01020F0022CC
:1002B2007F0F1203B37F3812038D7F3812038D7FB5
:1002C2003812038D7F0612038D7F0C12038D7F017E
:0302D20002038D97
:10014600E5212430F52BE5222430F52D752C2E756E
:100156002F56E5232430F532E5242430F534753363
:100166002E753656E5252430F53DE5262430F53F37
:10017600753E2E754156E5272430F544E528243092
:10018600F54675452E7548567B007A007929E4FFB9
:0E0196001201E07B007A00793B7F010201E05C
:10034800EFD394004011E4FDFC0DBD00010CED64F9
:070358007D4C70F51F80E9E8
:01035F00227B
:100003001202B27F14120348E53A14603214604EB0
:1000130014606A14700302009F240460030200A8A2
:100023007D011202D58F08E50875F03284F521E5CC
:100033000875F03284E5F075F00A84F52280667D58
:10004300021202D58F08E50875F03284F523E5081E
:1000530075F03284E5F075F00A84F52480477D035A
:100063001202D58F08E50875F03284F525E5087589
:10007300F03284E5F075F00A84F5268028E4FD1259
:1000830002D58F08E50875F03284F527E50875F089
:100093003284E5F075F00A84F5288009AB08E4FDA5
:1000A3007F9012023D053AE53AD394044003E4F508
:0700B3003A12014602000BA6
:030000000200BA41
:0C00BA00787FE4F6D8FD75814B0201014F
:10021000BB010CE58229F582E5833AF583E02250A3
:1002200006E92582F8E622BBFE06E92582F8E222ED
:0D023000E58229F582E5833AF583E4932207
:1000C600020003E493A3F8E493A34003F68001F24D
:1000D60008DFF48029E493A3F85407240CC8C3333B
:1000E600C4540F4420C8834004F456800146F6DF0A
:1000F600E4800B0102040810204080900267E47E31
:10010600019360BCA3FF543F30E509541FFEE493FE
:10011600A360010ECF54C025E060A840B8E493A3C5
:10012600FAE493A3F8E493A3C8C582C8CAC583CAF0
:10013600F0A3C8C582C8CAC583CADFE9DEE780BEA8
:01028D000070
:00000001FF
