:1003D200021B3F000215060002175B0002194F00C4
:10008F00D29012040B20B41C7F147E001203E320C5
:10009F00B4121203387B007A00791B120277120315
:1000AF005DEF70FA20B51C7F147E001203E320B5BC
:1000BF00121203387B007A0079151202AB12035D1E
:1000CF00EF70FA20B61C7F147E001203E320B612E5
:1000DF001203387B007A00791712020B12035DEFBF
:1000EF0070FA20B7A07F147E001203E320B7961298
:1000FF0003387B007A00791912024112035DEF6019
:03010F008480F8F1
:10031000C043101001C1C2C2C2C2C2C2C2C2C2C363
:10032000C2C2C2C3C043101001C1C2C2C2C2C2C253
:08033000C2C2C2C3C2C2C2C2B4
:09040B00C290D293C291D2952255
:1003B900E4FEEF339294EF25E0FFD291A292E43369
:0803C9004207C2910EBE08EAD2
:0103D1002209
:0C03F100C2931203B9E4FF1203B9D293C7
:0103FD0022DD
:0E0380007F2012038E7D037F2212038E7F21C9
:10038E00C2931203B9AC07AF051203B9D293AF04EF
:01039E00223C
:0602DF008B118A12891345
:1002E500C2931203B9AD07E4FCECC395145017E4AF
:1002F500FF1203B9AB11AA12A9138C82758300EF03
:0A0305001201B00C80E3D293AF05A3
:01030F0022CB
:0701D2007BFF750F057F3074
:0601D9008B0C8A0D890E5B
:1001DF00C2931203B9AD07E4FCECC3950F5018ABF3
:1001EF000C050EE50EAA0D7002050D14F9120197FC
:0B01FF00FF1203B90C80E2D293AF05A1
:01020A0022D1
:10011200C2907BFF7A037910750F057F2A1201D9ED
:100122007BFF7A037915750F057F2B1201D97D02AA
:100132007F3112038E7F3212038E7D0F1203807D78
:10014200407F2512038E7D077F2612038ED2907F79
:06015200057E000203E33C
:100158007F071203F18F20300634E520540EC29039
:1001680024FE600C240270167B007A007921800638
:100178007B007A0079237514027F611202DF7DFF0C
:0E0188007F2712038EC2937FE21203B9D29337
:010196002246
:10033800C2907D0E1203807D0F7F2412038E7D40B4
:100348007F2512038E7D077F2612038ED2907F05AC
:050358007E000203E33A
:100277008B088A09890AC2907A0379241201D27BF2
:10028700FF7A037924750F057F2A1201D9AB08AAD3
:1002970009A90A750F027FA01201D9D2907F057EA6
:0402A700000203E36B
:1002AB008B088A09890AC2907A0379291201D27BB9
:1002BB00FF7A037929750F057F2B1201D9AB08AA99
:1002CB0009A90A750F027FA01201D9D2907F057E72
:0402DB00000203E337
:10020B008B088A09890AC2907BFF7A03792E120127
:10021B00D47BFF7A03792E750F057F2C1201D9AB96
:10022B0008AA09A90A750F027FA01201D9D2907FE3
:06023B00057E000203E352
:100241008B088A09890AC2907BFF7A0379331201EC
:10025100D47BFF7A037933750F057F2D1201D9AB5A
:1002610008AA09A90A750F027FA01201D9D2907FAD
:06027100057E000203E31C
:10035D007F071203F18F202005033004137DFF7FEB
:10036D002712038EC2937FE11203B9D2937F00222D
:03037D007F0122DB
:0D03E300EFD3940040077E7DDEFE1F80F307
:0103F00022EA
:0C03FE00E4FDEDC39FE49E50030D80F66B
:01040A0022CF
:10039F00EF1FAA0670011E4A600F7D16EDD3940061
:0903AF0040EE7C0ADCFE1D80F327
:0103B8002222
:03000000020003F8
:0C000300787FE4F6D8FD75812402004AE5
:10019700BB010689828A83E0225002E722BBFE0266
:0901A700E32289828A83E4932299
:1001B000F8BB010DE58229F582E5833AF583E8F085
:1001C000225006E92582C8F622BBFE05E92582C831
:0201D000F22219
:10000F0002008FE493A3F8E493A34003F68001F278
:10001F0008DFF48029E493A3F85407240CC8C333F2
:10002F00C4540F4420C8834004F456800146F6DFC1
:10003F00E4800B01020408102040809003D2E47E7C
:10004F00019360BCA3FF543F30E509541FFEE493B6
:10005F00A360010ECF54C025E060A840B8E493A37D
:10006F00FAE493A3F8E493A3C8C582C8CAC583CAA8
:10007F00F0A3C8C582C8CAC583CADFE9DEE780BE60
:0103E200001A
:00000001FF
