:10013800D2A100D2A00000000000C2A1000000006F
:0601480000C2A00000222D
:10014E00C2A100D2A00000000000D2A10000000059
:01015E00227E
:10005F00E4FEEFA806088002C333D8FC30E704D2D1
:10006F00A18002C2A100D2A00000000000C2A00E19
:10007F00BE08DF0000D2A10000D2A000000030A116
:0B008F0004C2008002D200C2A00000EA
:01009A002243
:1000C500E4FFD2A1FE00C2A00000000000D2A00003
:1000D50000EF25E0FF30A1010F00000EBE08E6C2CB
:0300E500A0000078
:0100E80022F5
:10012000200104C2A18002D2A1000000D2A00000E0
:08013000000000C2A000002243
:10009B00AE07AC0312013812005F200002C322ED41
:1000AB004440FF12005F200002C322AF0412005F26
:0A00BB00200002C32212014ED322DE
:1000E90012013812005F200002C322ED4440FF12C2
:0C00F900005F200002C32212014ED3223F
:10010500120138EF04FF12005F2000037F00221266
:0A01150000C5D20112012012014EB4
:01011F0022BD
:04016B007FC2DFFE72
:01016F00226D
:100003007D027F901200E97F901201058F23E52383
:05001300D394F540EB61
:10001800750803750920B2A312016BE5091509706B
:10002800021508D3E5099400E508940050E86390A8
:10003800FF7508017509F4B2A312016B12016BE593
:1000480009150970021508D3E5099400E50894001C
:0500580050E56390FF7C
:02005D0080A47D
:0300000002015F9B
:0C015F00787FE4F6D8FD758141020003B2
:00000001FF
