:1001D7003F065B4F666D7D077F6F777C395E797170
:0400030002090000EE
:1001A900D3EF9400EE940040147D707C00ED1D7037
:0D01B900011CED4C70F7EF1F70E61E80E397
:0101C6002216
:10012D00E4F50BF50C1201C7D2A3D290D291D29265
:10013D00D293E50A644445097021F509F50A050CC9
:10014D00E50C7002050B643C450B7004F50BF50CCA
:10015D00C2A37F0A7E001201A9D2A3AF0C12016FB8
:02016D0080D040
:10016F00EF75F00A84FEEF75F00A84ABF0C2A4C2FB
:10017F00A5D2A6C2A7AF06EF9001D793F5807F0255
:10018F007E001201A9C2A4C2A5C2A6D2A7AF03EFD7
:0A019F0093F5807F027E000201A9A3
:1001C700438901758CCB758A0FD2AFD2A9D28C2205
:03000B0002000EE2
:0D000E00C0E0C083C082C0D075D000C0002B
:10001B00758CCB758A0FE508B40800506690002FDD
:10002B00F828287302004702004D02005302005BC0
:10003B0002006302006F020077020083C290D2912C
:10004B00800AC290C2918004D290C291D292800E4B
:10005B00D290C291C2928006D290D291C292D29388
:10006B000508801FD290D291C2928006D290D29175
:10007B00D292C2930508800BC290D291D292C293B6
:0B008B00750800050AE50A700205096F
:0B009600D000D0D0D082D083D0E03268
:030000000200A15A
:0C00A100787FE4F6D8FD7581200200E8AD
:1000AD0002012DE493A3F8E493A34003F68001F23B
:1000BD0008DFF48029E493A3F85407240CC8C33354
:1000CD00C4540F4420C8834004F456800146F6DF23
:1000DD00E4800B0102040810204080900003E47EB0
:1000ED00019360BCA3FF543F30E509541FFEE49318
:1000FD00A360010ECF54C025E060A840B8E493A3DF
:10010D00FAE493A3F8E493A3C8C582C8CAC583CA09
:10011D00F0A3C8C582C8CAC583CADFE9DEE780BEC1
:0100070000F8
:00000001FF
