:0C00EF0068656C6C6F20776F726C6400A9
:03011100DFFE22EC
:1000BC00AE07AF061EEF600C7FF51201117FF51233
:0500CC00011180EE228D
:0D00E200C290D291C2A500D2A5E5803322C4
:0C006E007F3812007A7F051200BC7F383A
:10007A001200E240FBC290C291D2A58F8000C2A5B5
:01008A002253
:1000D1001200E240FBD290C291D2A58F8000C2A54E
:0100E10022FC
:0A0107007F0112007A7F050200BCA0
:10000300AE07ED7005EE24808003EE24C0FF1200DE
:100013007A12008BFF600C1200D1740129F9E43AC3
:04002300FA80EE224F
:1000A400AE07AC03ED7005EE24808003EE24C0FFA0
:0800B40012007AAF040200D132
:10004B0012006E7F051200BC12006E7F0812007A40
:10005B007F0112007A7F0612007A1F1200BC7F0C00
:03006B0002007A16
:1000270012004B1201077B6FE4FD7F071200A47BD0
:100037006B7F081200A47BFF7A0079EF0D7F011216
:04004700000380FE34
:030000000200FB00
:0C00FB00787FE4F6D8FD7581070200272D
:10008B00BB010689828A83E0225002E722BBFE0273
:09009B00E32289828A83E49322A6
:00000001FF
