:06000300040800000000EB
:1001B800758901758CDCE4F58AD2AFD2A9D28C227C
:10000E007590FF1201B820A004A2A0929020901625
:10001E00E47F01FEFDFCAB0BAA0AA909A808C312D6
:10002E0001A74002C291209116E47F02FEFDFCABB7
:10003E000BAA0AA909A808C31201A74002C292205E
:10004E009216E47F03FEFDFCAB0BAA0AA909A808D1
:10005E00C31201A74002C293209316E47F04FEFD53
:10006E00FCAB0BAA0AA909A808C31201A74002C239
:10007E0094209416E47F05FEFDFCAB0BAA0AA90999
:10008E00A808C31201A74002C295209516E47F0668
:10009E00FEFDFCAB0BAA0AA909A808C31201A740D2
:1000AE0002C296209616E47F07FEFDFCAB0BAA0A51
:1000BE00A909A808C31201A74002C297E4FFFEFDDA
:1000CE00FCAB0BAA0AA909A808C31201A760030278
:0800DE0000147590FF020014EC
:03000B000201727D
:10017200C0E0C0D0758CDC758A0020A017E50B2486
:1001820001F50BE4350AF50AE43509F509E4350809
:10019200F508800C750B00750A00750900750800DA
:0501A200D0D0D0E032D6
:030000000200E615
:0C00E600787FE4F6D8FD75810B02012D37
:1001A700EB9FF5F0EA9E42F0E99D42F0E89C45F0AE
:0101B7002225
:1000F20002000EE493A3F8E493A34003F68001F216
:1001020008DFF48029E493A3F85407240CC8C3330E
:10011200C4540F4420C8834004F456800146F6DFDD
:10012200E4800B0102040810204080900003E47E6A
:10013200019360BCA3FF543F30E509541FFEE493D2
:10014200A360010ECF54C025E060A840B8E493A399
:10015200FAE493A3F8E493A3C8C582C8CAC583CAC4
:10016200F0A3C8C582C8CAC583CADFE9DEE780BE7C
:0100090000F6
:00000001FF
