:100974003F065B4F666D7D077F6F777C395E7971CB
:0609840000408F4F2F1F01
:1008FD00011900011800010800011400010D00018B
:10090D000900011700012000011E0001150001243E
:10091D0000010A00011F00010B10010C10010E1047
:0F092D00010F10041000000000041A0000000069
:10098A008F22E522D39400400A75237DD523FD15D5
:04099A002280EF22A6
:10095D001F43A0F0ED90097493F580EF90098693F5
:07096D0052A07F0502098A78
:10093D00AE03AC05AD077F0412095DAD047F031254
:10094D00095DAD067F0212095DAD2B7F0102095DC8
:10059A0075B0FE85B0285328F0E52864F060557FD1
:1005AA000A12098A85B0285328F0E52864F06044C5
:1005BA0085B028E5282482601B24C0601224E060EC
:1005CA000924F0701C7519018017751902801275BB
:1005DA001903800D75190A751401E4F50DF509F56D
:1005EA0017E52864F0600885B0285328F080F27572
:1005FA000801051875B0FD85B0285328F0E5286470
:10060A00F060557F0A12098A85B0285328F0E52838
:10061A0064F0604485B028E5282483601B24C06008
:10062A001224E0600924F0701C75190480177519EA
:10063A00058012751906800D75190BE4F514750DF0
:10064A0001F509F517E52864F0600885B0285328F4
:10065A00F080F2750801051875B0FB85B02853289B
:10066A00F0E52864F060557F0A12098A85B028539C
:10067A0028F0E52864F0604485B028E528248560E0
:10068A001B24C0601224E0600924F0701C7519074D
:10069A0080177519088012751909800D75190CE4EF
:1006AA00F514F50DF509751701E52864F06008855C
:1006BA00B0285328F080F2750801051875B0F7853F
:1006CA00B0285328F0E52864F0605B7F0A12098A93
:1006DA0085B0285328F0E52864F0604A85B028E5FB
:1006EA00282489602824C0601C24E0601324F07048
:1006FA002275190EE4F514F50D750901F517801325
:10070A00E4F519800E75190F751F01800675190D0C
:10071A00750A01E52864F0600885B0285328F0803E
:06072A00F275080105183C
:0107300022A6
:10000300E4F525F526F527F51812059AE514450DAF
:1000130045094517FB4520451E45154524450A4519
:100023001FF525600302010EE5087018E51870142A
:10003300750B10750C10750E10750F10F513F51266
:10004300F511F510E508700302058BE519C3940A51
:10005300400302058BE518B4010C85190FE4850FE5
:1000630013F512020104E518B4021C850F0E85195D
:100073000FE50E75F00AA47C00250FFFEC35F0FEAA
:10008300E48F138E12807AE5186403702E850E0CAC
:10009300850F0E85190FE50E75F00AA4FDACF0E58A
:1000A3000C75F064A42DFFE5F03CFE7C00EF250FFA
:1000B300FFEC3EFEE48F138E128046E51864047055
:1000C30044850C0B850E0C850F0E85190FAF0BFEA7
:1000D3007C037DE8120731AC06AD07E50C75F064CF
:1000E300A42DFDEC35F0FCE50E75F00AA42DFFE51B
:1000F300F03CFE7C00EF250FFFEC3EFEE48F138EF9
:1001030012F511F510E4F50802058B8B26E5204561
:100113001E45154524F527E526606FE519D3940997
:100123004068E5277064AF1DAE1CAD1BAC1AEC4DE7
:100133004E4F7056F518F508750B10750C10750EAB
:1001430010750F10E514600CE4F514752001F51E0D
:10015300F515F524E50D600CE4F50DF520751E018C
:10016300F515F524E509600CE4F509F520F51E7590
:100173001501F524E5177003020554E4F517F5207E
:10018300F51EF515752401020554E5266055E5199C
:10019300D39409404EE527704AF518F508E5146035
:1001A3000CE4F514752001F51EF515F524E50D6035
:1001B3000CE4F50DF520751E01F515F524E5096030
:1001C3000CE4F509F520F51E751501F524E5176016
:1001D3000CE4F517F520F51EF515752401E4F50A71
:1001E300020554E526600BE519D394094004E5277D
:1001F3007007E50A7003020461E520601BE513251F
:100203001DF51DE512351CF51CE511351BF51BE528
:1002130010351AF51AE4F520E51E601CC3E51395A5
:100223001DF51DE512951CF51CE511951BF51BE548
:1002330010951AF51AE4F51EE515601EAF1DAE1CE8
:10024300AD1BAC1AAB13AA12A911A8101207438F46
:100253001D8E1C8D1B8C1AE4F515E524601EAB1D49
:10026300AA1CA91BA81AAF13AE12AD11AC1012072A
:10027300CE8F1D8E1C8D1B8C1AE4F524E4FFFEFD2E
:10028300FCAB1DAA1CA91BA81AC3120860400FE4EB
:100293007F107E27FDFCA81AD31208604018750F43
:1002A30011750E11750C11750B11E4F51DF51CF587
:1002B3001BF51A02044DE47F0AFEFDFCAB1DAA1CCC
:1002C300A91BA81AC31208605008851D0F750E10CC
:1002D300803CE47F64FEFDFCAB1DAA1CA91BA81A8D
:1002E300C3120860502DE47B0AFAF9F8AF1DAE1C67
:1002F300AD1BAC1A1207CEAF038F0FE47B0AFAF9DA
:10030300F8AF1DAE1CAD1BAC1A1207CE8F0E750CC9
:10031300108072E47FE87E03FDFCAB1DAA1CA91BC1
:10032300A81AC31208605063E47B64FAF9F8AF1D9E
:10033300AE1CAD1BAC1A1207CEAC00AD01AE02AFC2
:1003430003E47B0AFAF9F81207CEAF038F0FE47BBD
:1003530064FAF9F8AF1DAE1CAD1BAC1A1207CEAC94
:1003630000AD01AE02AF03E47B0AFAF9F81207CE3F
:100373008F0EE47B64FAF9F8AF1DAE1CAD1BAC1A0B
:100383001207CE8F0C750B1002044DE47F107E27ED
:10039300FDFCAB1DAA1CA91BA81AC31208604003CD
:1003A30002044DE47BE87A03F9F8AF1DAE1CAD1BE4
:1003B300AC1A1207CEAC00AD01AE02AF03E47B640E
:1003C300FAF9F81207CEAC00AD01AE02AF03E47B3D
:1003D3000AFAF9F81207CEAF038F0FE47BE87A032A
:1003E300F9F8AF1DAE1CAD1BAC1A1207CEAC00ADB5
:1003F30001AE02AF03E47B64FAF9F81207CEAC0056
:10040300AD01AE02AF03E47B0AFAF9F81207CE8F0F
:100413000EE47BE87A03F9F8AF1DAE1CAD1BAC1AF2
:100423001207CEAC00AD01AE02AF03E47B64FAF970
:10043300F81207CE8F0CE47BE87A03F9F8AF1DAE10
:100443001CAD1BAC1A1207CE8F0B851D13851C1216
:10045300851B11851A10E4F518F508020554E527E4
:100463007003020554E519C3940A4003020554E5D9
:10047300087018E5187014750B10750C10750E10B4
:10048300750F10F51DF51CF51BF51AE50870030231
:100493000554E518B40118750B10750C10750E1082
:1004A300750F1085190FE4850F1DF51C02054DE529
:1004B30018B4021C850F0E85190FE50E75F00AA4FA
:1004C3007C00250FFFEC35F0FEE48F1D8E1C807A37
:1004D300E5186403702E850E0C850F0E85190FE544
:1004E3000E75F00AA4FDACF0E50C75F064A42DFFC5
:1004F300E5F03CFE7C00EF250FFFEC3EFEE48F1D94
:100503008E1C8046E51864047044850C0B850E0C24
:10051300850F0E85190FAF0BFE7C037DE8120731A3
:10052300AC06AD07E50C75F064A42DFDEC35F0FCCD
:10053300E50E75F00AA42DFFE5F03CFE7C00EF25E7
:100543000FFFEC3EFEE48F1D8E1CF51BF51AE4F540
:1005530008E51F6033750B10750C10750E10750FC1
:1005630010E4F514F50DF509F517F520F51EF5154D
:10057300F524F51FF50AF518F513F512F511F51025
:10058300F51DF51CF51BF51A850F2BAB0EAD0CAF46
:070593000B12093D02000CF0
:0300000002087182
:0C087100787FE4F6D8FD75812B0208B8F2
:10073100EF8DF0A4A8F0CF8CF0A428CE8DF0A42EDC
:02074100FE2296
:10074300E88FF0A4CC8BF0A42CFCE98EF0A42CFC55
:100753008AF0EDA42CFCEA8EF0A4CDA8F08BF0A4D3
:100763002DCC3825F0FDE98FF0A42CCD35F0FCEB32
:100773008EF0A4FEA9F0EB8FF0A4CFC5F02ECD39F7
:0F078300FEE43CFCEAA42DCE35F0FDE43CFC2264
:1007920075F008758200EF2FFFEE33FECD33CDCC1E
:1007A20033CCC58233C5829BED9AEC99E5829840A1
:1007B2000CF582EE9BFEED9AFDEC99FC0FD5F0D67E
:1007C200E4CEFBE4CDFAE4CCF9A88222B800C1B9A8
:1007D2000059BA002DEC8BF084CFCECDFCE5F0CBE6
:1007E200F97818EF2FFFEE33FEED33FDEC33FCEB1F
:1007F20033FB10D703994004EB99FB0FD8E5E4F9DA
:10080200FA227818EF2FFFEE33FEED33FDEC33FCC6
:10081200C933C910D7059BE99A4007EC9BFCE99ABA
:10082200F90FD8E0E4C9FAE4CCFB2275F010EF2FFF
:10083200FFEE33FEED33FDCC33CCC833C810D707FF
:100842009BEC9AE899400AED9BFDEC9AFCE899F83A
:0E0852000FD5F0DAE4CDFBE4CCFAE4C8F922CD
:10086000EB9FF5F0EA9E42F0E99D42F0E89C45F0EE
:010870002265
:10087D00020003E493A3F8E493A34003F68001F28E
:10088D0008DFF48029E493A3F85407240CC8C3337C
:10089D00C4540F4420C8834004F456800146F6DF4B
:1008AD00E4800B01020408102040809008FDE47ED6
:1008BD00019360BCA3FF543F30E509541FFEE49340
:1008CD00A360010ECF54C025E060A840B8E493A307
:1008DD00FAE493A3F8E493A3C8C582C8CAC583CA32
:1008ED00F0A3C8C582C8CAC583CADFE9DEE780BEEA
:01093C0000BA
:00000001FF
