:030000000200D922
:0C00D900787FE4F6D8FD75810E0201204E
:07000300010A00020D0001DB
:09018C00D290D291D292D29322BA
:10000E00E50AB4080040030200D890001FF8282823
:10001E007302003702004D0200630200760200896F
:10002E0002009C0200AF0200C3E50C450B700302F8
:10003E0000D8C290D291D292D293750A018073E504
:10004E000C450B70030200D8C290C291D292D2938B
:10005E00750A02805DE50C450B606FD290C291D29D
:10006E0092D293750A03804AE50C450B605CD290E0
:10007E00C291C292D293750A048037E50C450B608B
:10008E0049D290D291C292D293750A058024E50C82
:10009E00450B6036D290D291C292C293750A0680F9
:1000AE0011E50C450B6023D290D291D292C293757A
:1000BE000A07E48011E50C450B600FC290D291D275
:0B00CE0092C293E4F50AF50BF50C223A
:0F016500438911758CDCE4F58A75A88AD28C2247
:0B01810012016512018C12000E80FBC1
:03000B000201747B
:0D017400758CDC758A00750B00750C01326E
:1000E500020181E493A3F8E493A34003F68001F2AF
:1000F50008DFF48029E493A3F85407240CC8C3331C
:10010500C4540F4420C8834004F456800146F6DFEA
:10011500E4800B0102040810204080900003E47E77
:10012500019360BCA3FF543F30E509541FFEE493DF
:10013500A360010ECF54C025E060A840B8E493A3A6
:10014500FAE493A3F8E493A3C8C582C8CAC583CAD1
:10015500F0A3C8C582C8CAC583CADFE9DEE780BE89
:01000A0000F5
:00000001FF
