:1001AE003F065B4F666D7D077F6F777C395E797199
:03000300010A01EE
:10019000D3EF9400EE940040147D707C00ED1D7050
:0D01A000011CED4C70F7EF1F70E61E80E3B0
:0101AD00222F
:10009A00750B02750C001201BED290D291D292D287
:1000AA009320B4187F0A7E0012019020B43D30B428
:1000BA00FDE50AC394125033050A802F20B5187F34
:1000CA000A7E0012019020B52230B5FDE50AD394CC
:1000DA00014018150A801420B60CD290D291D292FF
:1000EA00D293D200800520B702C200AF0A1201568D
:0200FA0080AFD5
:10015600EF75F00A84FEEF75F00A84ABF0C2A4C214
:10016600A5D2A6C2A7AF06EF9001AE93F5807F0297
:100176007E00120190C2A4C2A5C2A6D2A7AF03EF09
:0A01860093F5807F027E00020190D5
:0A01BE00438901D2AFD2A9D28C22EE
:03000B000200FCF4
:0400FC00C0E0C0D0D0
:10010000758CFC758A18200048C37414950A65081C
:10011000703DF508E509146013146018146021148B
:10012000602A24047029C290D2918004D290C29196
:10013000D2928006D290D291C292D2930509800FBA
:10014000D290D291D292C29305098003750900051D
:0101500008A6
:05015100D0D0D0E03227
:0300000002000EED
:0C000E00787FE4F6D8FD758120020055D3
:10001A0002009AE493A3F8E493A34003F68001F262
:10002A0008DFF48029E493A3F85407240CC8C333E7
:10003A00C4540F4420C8834004F456800146F6DFB6
:10004A00E4800B0102040810204080900003E47E43
:10005A00019360BCA3FF543F30E509541FFEE493AB
:10006A00A360010ECF54C025E060A840B8E493A372
:10007A00FAE493A3F8E493A3C8C582C8CAC583CA9D
:10008A00F0A3C8C582C8CAC583CADFE9DEE780BE55
:0100060000F9
:00000001FF
