:1001EE00E4F508F509D29112024C1201D81201372A
:0501FE0012005180F821
:0D020300EFD3940040077E6EDEFE1F80F3F7
:0102100022CB
:0C021100E4FDEDC39FE49E50030D80F659
:01021D0022BE
:1001A500EF1FAA0670011E4A600F7D16EDD394005D
:0901B50040EE7C0ADCFE1D80F323
:0101BE00221E
:0A024200C043101001C0431010016A
:09024C00C290D293C291D2952216
:0B023700D2A4C2A5C2A6C2A78F8022DD
:1001BF00E4FEEF339294EF25E0FFD291A292E43365
:0801CF004207C2910EBE08EACE
:0101D7002205
:0C021E00C2931201BFE4FF1201BFD29393
:01022A0022B1
:0E0186001201947D407F251201947D077F2693
:10019400C2931201BFAC07AF051201BFD293AF04E3
:0101A4002238
:060106008B0B8A0C890D31
:10010C00C2931201BFAD07E4FCECC3950E5017E48B
:10011C00FF1201BFAB0BAA0CA90D8C82758300EFEB
:0A012C001200AB0C80E3D293AF0584
:0101360022A6
:0700CD007BFF750E057F2A81
:0600D4008B0B8A0C890D64
:1000DA00C2931201BFAD07E4FCECC3950E5018ABF6
:1000EA000B050DE50DAA0C7002050C14F91200920D
:0B00FA00FF1201BF0C80E2D293AF05A3
:0101050022D7
:10013700C2907A0279471200CD7D027F3112019475
:100147007D0F7F201201947D017F221201947F2170
:0C015700120186D2907F057E0002020398
:100051007F0712021E8F20300632C2907B007A0089
:100061007912750E027F61120106C2A37F647E00C0
:10007100120203D2A3AF127E001202557DFF7F2729
:10008100120194C2937FE21201BFD293AF12020216
:010091003737
:100003008B0F8A108911C2907BFF7A027942750E99
:10001300057F301200D47A0279421200CDAB0FAAC9
:1000230010A911750E027FA01200D47D017F211249
:1000330001947F221201947D0F7F241201867D0E8D
:0E0043007F20120194D2907F057E00020203FE
:100163007F0712021E8F202005033004137DFF7FBB
:1001730027120194C2937FE11201BFD2937F002221
:030183007F0122D7
:1001D800758920758DFD758BFDE4F587759850D26E
:0601E800AFD2ACD28E2262
:080255008F993099FDC2992236
:0300000002022BCE
:0C022B00787FE4F6D8FD7581200201EE1A
:10009200BB010689828A83E0225002E722BBFE026C
:0900A200E32289828A83E493229F
:1000AB00F8BB010DE58229F582E5833AF583E8F08B
:1000BB00225006E92582C8F622BBFE05E92582C837
:0200CB00F2221F
:00000001FF
